:02000000052ACF
:10000800FF00030E8301BA000A08B9008A017008CC
:10001800A1000B1D19280B110630810027080805BF
:10002800F000031919280130B8002108F000390838
:0C0038008A003A0E8300FF0E7F0E0900C4
:0E004400F201F101F001F801F30100300800B3
:100052007B15FB1F33280130F300F201F101F0019F
:08006200FA0DF20CFF3008005A
:08006A00FA1FF2130030080038
:10007200A0017208031D4E287108F2007008F100F9
:10008200F001A0157208031D4E287108F200F1015B
:10009200A0112016720803195C282008F302031D20
:1000A200031C60280310F21B6428F00DF10DF20D01
:1000B200F30B542860280130FC002220672802300C
:0E00C200FC00292067280430FC0035200800CF
:1000D000831203137008F100F0010830FC0071086E
:1000E000F40C03187728FC0B7028F101003403107E
:1000F0007C28F40C0318F107F10CF00CFC0B7928A8
:020100000800F5
:0E010200831203133C088A003B0882000800A9
:10011000FB14FB1F9228FF30F300F200F100F00007
:08012000FA0DF20CFF3008009B
:10012800831203134308F0004408F1000130C302AE
:10013800031CC403700871040319A52800000000FB
:0401480094280800EF
:10014C0083120313FB01FA01F9018030F800F10C62
:10015C00F00C031CBA287408F90775080318750FFE
:10016C00FA070318FB0A0310F01FC2287408FA07D9
:10017C0075080318750FFB07FB0CFA0CF90CF80C3F
:10018C00031CAD287B08F3007A08F2007908F10013
:06019C007808F0000800E5
:1001A20083120313290888044208F0000A30F4007D
:1001B20068207008C3007108C40094202909F00067
:1001C200700888054208643CF000F101031CF10349
:1001D2000A30F4000030F500A6207008C300710850
:0601E200C4009420080097
:1001E80083120313FA017308031D7A147708031D99
:1001F800FA147A0803194029033A03190B297A18C3
:100208000829F61F3E293C29F21F3C293E2972087D
:100218008039FA00F21376088039F6137A06031942
:1002280019297A0803193C293E297708730203190A
:100238002029031C34293829760872020319272932
:10024800031C342938297508710203192E29031C47
:1002580034293829740870020319402903183829E9
:10026800FA0803193E293C29FA0803193C293E29B2
:1002780003140800031008000314031508000800FD
:1002880083120313FB017308031D770803199B29C5
:1002980072087606FA007708F3077E30031C58299F
:1002A800F30203189E295B29F302031CA129720893
:1002B800F8007108FC007008FD00F817F617031025
:1002C800F201F101F0011830A0007D1C75297408B5
:1002D800F00775080318750FF10776080318760FED
:1002E800F207F20CF10CF00CF80CFC0CFD0C0310EE
:1002F800A00B6929F21B8529F80DF00DF10DF20DFF
:10030800F3037B1B701C9729F81F9729F00A031920
:10031800F10A0319F20A031D9729F20CF10CF00CEB
:10032800F30A03199E29FA1FF2130030A32901309A
:100338002220A32902308820A32904302920000084
:020348000800AB
:0A034A008312031342089500080017
:1003540081208A110A128000840ABB0A0319BC0A8C
:08036400F003031DAA290800A3
:10036C00831203134208F000F00D7010F00D7010A2
:10037C00F00D7010413070049F000630FC003030DE
:10038C00FD00FD0BC729FC0BC72900009F14280892
:10039C001F05F0000319D329CD291E08F100F00127
:0C03AC0083161E08F0070318F10A080071
:1003B800831203137008F8007108F000F101F201CC
:1003C800F301FB01FC019630F300FA017008F1001B
:0C03D8007808F000F801F201392008005C
:1003E40007308312031392000C309700FA308316FF
:1003F400920083122A09F0007008831687053E30A4
:06040400831295000800C0
:10040A00203083120313A2001030A3004030A4004E
:10041A000430A5000230A6000830A7000230A80068
:10042A000130A9000430AA000430AB004730AC0008
:10043A000230AD00DA30AE000630AF008F30B000C7
:10044A000430B1000230B2000130B3000130B40010
:10045A000130B5000430B6000230B7004630C100A2
:10046A00073083169C0080309F000514F8308805F9
:10047A008312270883160804F10083122208230432
:10048A00F0002408F004F00970087105831688004A
:10049A0083122609F500750883160605F0008312F3
:1004AA00250870048316860083123409F400740840
:1004BA008316890583123309F300730883168705A7
:1004CA00831235088316860483122A09F0007008FD
:1004DA0083168705831236083704F0007009F20084
:1004EA00720883168905831232080804F1002B0961
:1004FA00F00070087105880075088605740889057A
:10050A0073088705720889058230FC00DD30FD001A
:10051A00FD0B8D2AFC0B8D2A00000000F221B80188
:10052A000730831681000630831281008B168B17E1
:10053A0038080319B42A34088904330887042708B9
:10054A000805F0000319AA2AA42A3409F000700841
:10055A0089053309F00070088705B8019D2A260924
:10056A00F000700886050000000000000000260860
:10057A0086040630FD00FD0BC02A00002609F000A3
:10058A007008860525080605F000031DCD2AC72A2E
:10059A008F018E010130900025080605F00003192D
:1005AA00D72AD12A10100F08F100F0010E087004A2
:1005BA00F2007108F3000030F3047208BE007308F9
:1005CA00BF002D087302031DEC2A2C0872020318BF
:1005DA00F62A22082304F0002408F004700888048C
:1005EA00242B31083F02031DFC2A30083E0203185F
:1005FA000A2B2409F00070080805F10022082304D8
:10060A00F000700871048800242B2F083F02031D94
:10061A00102B2E083E0203181C2B24082204F0007B
:10062A00F0090808F005230870048800242B220822
:10063A002304F0002408F004F00970088805C201B8
:10064A00B621DC212330F400DB30F5007930F600E6
:10065A007D30F70044210030F4000030F5002030EE
:10066A00F6008430F700F420013003180030F0005F
:10067A00700803194B2BBD0132303D0203184A2B77
:10068A004108C200D120BD0A412B4F2B2909F00095
:10069A007008880535080605F00003195D2B360831
:1006AA003704F000F009700889053E30C000642B59
:1006BA0036083704F000700889049630C0004008F4
:1006CA00C200A5210230FB000430FC00BA30FD0054
:1006DA00FD0B6D2BFC0B6D2BFB0B6D2B00009D2A6C
:0206EA00752B6E
:02400E004A2F37
:00000001FF
