:02000000292AAB
:10000800FF00030E8301BC000A08BB008A017008C8
:10001800A1008B1E1A28DF308B05063081002508C9
:100028000805F00003191A280130BA002108F00069
:0E0038003B088A003C0E8300FF0E7F0E09007D
:0E004600F201F101F001F801F30100300800B1
:100054007B15FB1F34280130F300F201F101F0019C
:08006400FA0DF20CFF30080058
:08006C00FA1FF2130030080036
:10007400831203134408F0004508F1000130C40260
:10008400031CC5037008710403195728F201F30116
:1000940000307302031D50280230720203185628E0
:0C00A400F20A0319F30A4A283A2808005F
:0E00B0008312031339088A0038088200080002
:1000BE00FB14FB1F6928FF30F300F200F100F00083
:0800CE00FA0DF20CFF300800EE
:1000D60083120313FB01FA01F9018030F800F10CD9
:1000E600F00C031C7F287408F90775080318750FB0
:1000F600FA070318FB0A0310F01F87287408FA078B
:1001060075080318750FFB07FB0CFA0CF90CF80CB5
:10011600031C72287B08F3007A08F2007908F100C4
:060126007808F00008005B
:10012C00831203137008F100F0010830FC00710811
:10013C00F40C0318A528FC0B9E28F10100340310C5
:10014C00AA28F40C0318F107F10CF00CFC0BA728EF
:02015C00080099
:10015E00A0017208031DC4287108F2007008F10096
:10016E00F001A0157208031DC4287108F200F101F8
:10017E00A011201672080319D2282008F302031DBD
:10018E00031CD6280310F21BDA28F00DF10DF20D28
:10019E00F30BCA28D6280130FC002320DD280230BC
:0E01AE00FC002A20DD280430FC00362008006A
:1001BC00831203132C0888044208F0000A30F40060
:1001CC0096207008C4007108C5003A2083120313EE
:1001DC002C09F000700888054208643CF000F1011D
:1001EC00031CF1030A30F4000030F5006B2070089A
:0A01FC00C4007108C5003A20080095
:0A020600831203134208950008005C
:10021000831203137008F8007108F000F101F20175
:10022000F301FB01FC019630F300FA017008F100C4
:0C0230007808F000F801F201AF2008008F
:10023C0083120313FA017308031D7A147708031D44
:10024C00FA147A0803196A29033A031935297A181A
:10025C003229F61F68296629F21F66296829720857
:10026C008039FA00F21376088039F6137A060319EE
:10027C0043297A0803196629682977087302031938
:10028C004A29031C5E296229760872020319512936
:10029C00031C5E2962297508710203195829031C75
:1002AC005E2962297408700203196A2903186229ED
:1002BC00FA08031968296629FA08031966296829B6
:1002CC0003140800031008000314031508000800A9
:1002DC00831203134208F000F00D7010F00D701033
:1002EC00F00D7010413070049F000630FC0030306F
:1002FC00FD00FD0B7F29FC0B7F2900009F142208B9
:10030C001F05F00003198B2985291E08F100F00147
:0C031C0083161E08F0070318F10A080001
:1003280007308312031392000C309700FA308316BB
:10033800920083122D09F0007008831687053E305D
:060348008312950008007D
:10034E0083120313FB017308031D77080319FE299B
:10035E0072087606FA007708F3077E30031CBB2975
:10036E00F3020318012ABE29F302031C042A7208A1
:10037E00F8007108FC007008FD00F817F61703105E
:10038E00F201F101F0011830A0007D1CD82974088B
:10039E00F00775080318750FF10776080318760F26
:1003AE00F207F20CF10CF00CF80CFC0CFD0C031027
:1003BE00A00BCC29F21BE829F80DF00DF10DF20D72
:1003CE00F3037B1B701CFA29F81FFA29F00A031994
:1003DE00F10A0319F20A031DFA29F20CF10CF00CC2
:1003EE00F30A0319012AFA1FF2130030062A01300C
:1003FE002320062A02305F20062A04302A2000001D
:02040E000800E4
:10041000831203134208F0004308F1000130C202C6
:10042000031CC3037008710403191C2AE830C400BC
:0A0430000330C5003A20082A080036
:10043A0058208A110A128000840AB80A0319B90AD4
:08044A00F003031D1D2A080048
:10045200023083120313A2004730A3000230A4002B
:100462000830A5002030A6001030A700DA30A8001E
:100472000630A9008F30AA000430AB000130AC0076
:100482000430AD004030AE000230AF000130B000A9
:100492000430B1000430B2000230B3000230B400C4
:1004A2000430B5000130B6000130B7004630C1005B
:1004B200073083169C0080309F000514F8308805B1
:1004C2008312250883160804F100831226082704E4
:1004D200F0002E08F004F0097008710583168800F8
:1004E20083123409F500750883160605F00083129D
:1004F200350870048316860083123709F4007408E5
:100502008316890583123609F3007308831687055B
:10051200831230088316860483122D09F0007008B6
:1005220083168705831231082F04F0007009F20048
:10053200720883168905831233080804F100320910
:10054200F000700871058800750886057408890531
:1005520073088705720889053230C2000030C30073
:1005620008229421BA0107308316810006308312D3
:1005720081000B168B17831203133A080319D52A2D
:10058200370889043608870425080805F00003198E
:10059200CB2AC52A3709F000700889053609F00010
:1005A20070088705BA01BC2A3409F0007008860574
:1005B2000230C4000030C5003A208312031334080D
:1005C20086040A30C4000030C5003A2083120313A7
:1005D2003409F0007008860535080605F000031D91
:1005E200F32AED2A8F018E010130900035080605AD
:1005F200F0000319FD2AF72AFE3090050F08F100DA
:10060200F0010E087004F2007108F3000030F304E8
:100612007208BE007308BF0024087302031D132B67
:100622002308720203181D2B26082704F0002E0847
:10063200F004700888044B2B2B083F02031D232B68
:100642002A083E020318312B2E09F0007008080513
:10065200F10026082704F0007008710488004B2B73
:1006620029083F02031D372B28083E020318432B9B
:100672002E082604F000F0090808F0052708700487
:1006820088004B2B26082704F0002E08F004F009FE
:1006920070088805C2016E2108212330F400DB3086
:1006A200F5007930F6007D30F700A7217008F400DC
:1006B2007108F5007208F6007308F7000030F000C8
:1006C2000030F1007030F2008330F3001E2101305F
:1006D20003180030F000700803197C2BBD01323082
:1006E2003D0203187B2B4108C200DE208312031354
:1006F200BD0A702B802B2C09F00070088805300889
:100702000605F00003198E2B31082F04F000F009C2
:10071200700889053E30C000952B31082F04F00087
:10072200700889049630C0004008C200032164307A
:0C073200C2000030C3000822BC2A9E2B2D
:02400E004A2F37
:00000001FF
